:100000006F00E05700000000DA010000DE01000090
:1000100000000000000000000000000000000000E0
:1000200000000000000000000000000000000000D0
:100030004C050000000000004E050000000000001C
:100040005005000052050000540500005605000050
:10005000580500005A0500005C0500005E05000020
:1000600060050000620500006405000066050000F0
:10007000680500006A0500006C0500006E050000C0
:100080007005000072050000740500007605000090
:10009000780500007A0500007C05000000000000E3
:1000A000511126C022C206C4828282441244A24058
:1000B00031018280634E050263C305042E86AA8542
:1000C0007D5515C285466378B6006356C0000606A6
:1000D0008606E36CB6FE014563E4C500918D558D3F
:1000E00085820582F5FA82808682C93F2E858282CA
:1000F0003305A04063D70500B305B040C1B7B305D1
:10010000B0408682653F3305A0408282868263C705
:100110000500634905005D372E858282B305B04036
:10012000E35B05FE3305A040513F3305B0408282BA
:1001300000003D432A876373C3029377F700BDEF46
:10014000ADE5937606FF3D8ABA960CC34CC30CC747
:100150004CC74107E36BD7FE11E28280B306C34070
:100160008A069702000096966780A6002307B700CC
:10017000A306B7002306B700A305B7002305B70001
:10018000A304B7002304B700A303B7002303B700F9
:10019000A302B7002302B700A301B7002301B700F1
:1001A000A300B7002300B700828093F5F50F939664
:1001B0008500D58D93960501D58D61B7939627005F
:1001C0009702000096968682E78086FA9680C1178D
:1001D0001D8F3E96E374C3F8A5B77300203001A0CD
:1001E000EFF21FEC511165201D2A371701409307CC
:1001F00000081CCB5CCB1CCB5CCB1CCB5CCB1CCBE6
:100200005CCB1CCB5CCB13870181144337260900E0
:100210001306067C5843938401816399C6021DE747
:1002200041473AC40547231101003AC28A85371570
:1002300001402310F100F9269C40D4401387170099
:10024000B337F700B69798C0DCC045B7B757120070
:10025000938707F8639CF60011EBC1473EC4231156
:1002600001008D473EC293070008C9B7B7771B004E
:1002700093870774E392F6FC61F381470147DCC082
:10028000C1473EC498C0231101008947E1BFEFF286
:100290003FE10945A121A124312D716513050520F8
:1002A000A12521B5EFF2DFDF116511118545130599
:1002B000050202C002C202C402C602C802CA02CCBF
:1002C0007529930700022310F100371401408D4770
:1002D0003EC28A85E147130504403EC425269307A4
:1002E00000042310F1008A859147130504403EC4A1
:1002F000112EF16737440140938707203EC66C00FA
:10030000B7070C00130504803ECA02C8231C010075
:100310006921854513050480AD23710179B3EFF29E
:100320003FD85111413737250000130505C5EF00AF
:100330008079B707002083A5070137250000130542
:1003400045C6BD255D2CAA8537250000130545C788
:1003500085258545130500021521B7140140054781
:1003600041448D478A85138504402310E10022C44F
:100370003EC22311010079248D473EC28A859147F0
:10038000138504402310F10022C4231101009D2C89
:1003900085454145E52689473EC28A859307000881
:1003A0003715014022C42310F10023110100992CBC
:1003B0003101E5B9B71702409843B706FFFC611158
:1003C0001367170098C3D843758FD8C39843B706EF
:1003D000F7FEFD16758F98C39843B706FCFFFD1610
:1003E000758F98C3D843C176FD16758FD8C337076C
:1003F0009F0098C7984F1367070298CF371701409F
:10040000832607401306074093F6F6F02320D740D3
:100410008326074093E606082320D740094718CAD9
:1004200002C002C2984FB706014021661367170049
:1004300098CFD842518FD8C29843C1663706020080
:10044000558F98C3B716024009679C42F18F3EC290
:10045000824785073EC0924781E78247E397E7FEE0
:10046000B71702409C431397E70063580706854778
:100470003EC2124785476310F706B72702409843EC
:10048000C176FD16719B98C398431367170098C3F4
:10049000B7170240D843D8C3D843758FD8C3D843C1
:1004A000C166558FD8C39843B7060001558F98C3CE
:1004B000984393166700E3DD06FED843B716024063
:1004C000719BD8C3D84313672700D8C32147DC42A8
:1004D000B18BE39EE7FE2101828002C259BFEFF299
:1004E0003FBC371702405C43370400209146B18B74
:1004F000130404016385D700A1466381D704B7378D
:100500006E01938707601CC0B7160240DC420840AA
:10051000918313F7F700B707002093870700BA9776
:1005200083C50700DC4293F5F50F93F707083357AF
:10053000B50099E361362A8718C085BE5C43B7775A
:10054000DC02938707C0C1B701A001A001A001A0F0
:1005500001A001A001A001A001A001A001A001A093
:1005600001A001A001A001A001A001A001A001A083
:1005700001A001A001A001A001A001A001A097017C
:10058000002093812132138101F617150000130515
:100590006579970500209385E5A61386818063FA27
:1005A000C5008322050023A0550011059105E3EA4B
:1005B000C5FE13858180938541826377B500232032
:1005C00005001105E36DB5FE93020008739002303B
:1005D0008D4273904280970200009382A2A293E220
:1005E000320073905230EFF0FFDC970200009382EC
:1005F00062BF7390123473002030B7F7FF1F03A55A
:10060000477C82809C45611122C226C013F70701F6
:1006100013F3F70001C7D8413363E30003D60500A5
:100620001377F60F29C783230500014713048002BF
:10063000930480048546B395E600B376B6006392D2
:10064000D50293122700BD46B396560093C6F6FF17
:10065000B3F37600B3125300B3E3720063978706D7
:100660004CC90507A146E317D7FC232075001307E3
:10067000F00F6378C70483234500A146130480026A
:10068000930480040547B312D70033775600639470
:10069000E202139726000117BD45B395E50093C507
:1006A000F5FFB3F375003317E300B363770063928C
:1006B0008702232A550085064147E395E6FC23225D
:1006C00075001244824421018280E39C97F80CC992
:1006D00049BFE39297FE23285500F1BF23ACA180C8
:1006E0008280EFF2FF9B371702405C4391462A84D9
:1006F000B18B6385D700A146638CD706B7376E01EF
:10070000938707601CC0B7160240DC42918313F741
:10071000F700B707002093878702BA9783C50700C1
:10072000DC42184093F5F50F93F707083355B700EF
:1007300099E33A85613248C008C448C4B7170240FB
:10074000DC43AD83FD8B13D737008A07F18BD98F3C
:1007500093F637010D476373D700D1173707002091
:1007600013074701BA9783C50700893A08C835BA05
:100770005C43B777DC02938707C069B799C5371721
:1007800002401C4F5D8D08CF8280B7170240984F02
:100790001345F5FF798D88CF8280EFF27F908356E5
:1007A0000501F577FD17F58F83D6650003D7C500E2
:1007B0002111D58F2318F5008356C500FD77938747
:1007C000379FF58F83D645002A842EC0D58F83D6D8
:1007D0008500D58F83D6A500D58F2316F5008357C6
:1007E0004501C207C18393F7F7CF5D8F231AE50058
:1007F0004800C53DB7470140938707808245631590
:10080000F406C2470357C400139517003E954207EC
:100810000E0541873E958C41635A07048605EFF02B
:10082000FF89930540062AC0EFF05F898247931441
:100830004500930540063E85EFF01F8B8357C400AB
:10084000C207C18763D607020E059305400613054C
:100850002503EFF0BF861D89C98CC204C180231413
:10086000940061016FF07F84B24769BF8A0545BF7C
:1008700012059305400613052503EFF03F843D89DB
:10088000E1BF81C98357C5000967D98F2316F500D9
:1008900082800357C500F977FD17F98FC5BF93F51F
:1008A000F51F2312B5008280035505006D8D333589
:1008B000A0008280EFF2CFFEB707002003A507015A
:1008C000B7157A0093850520EFF04FFF1375F50FEC
:1008D000238FA18093175500898F8A073E950E05B7
:1008E000239EA1806FF06FFCEFF28FFB2A841165CD
:1008F0001111854513050502513593070002231098
:10090000F100371501408D473EC28A85E147130546
:1009100005403EC4C53922C637440140B707080028
:100920006C00130504803ECA02C8231C0100B535C3
:10093000854513050480B13771016FF00FF7EFF2B1
:100940002FF67111AE840144635DC402B7470140C4
:10095000138707803A859305000432C0B137B74743
:10096000014013870780024675D5338784008305CD
:100970000700138507800504C205C1810D370246B3
:10098000E1B7328511016FF04FF2370700201307EE
:1009900087031C43938641823E956369D500938605
:1009A00001E663E5A60008C33E858280FD57EDBFE2
:1009B0001301C1FD3ED02EC832CA36CC3ACE97F7CD
:1009C000FF1F9387276E22C4804326C206C6AA84CF
:1009D00009C41C4C99E322852D230C441408268657
:1009E000228536C0EF00D017B24022449244130152
:1009F00041028280411126C206C622C42EC0AA84AA
:100A000001C5184D11E3F529984C804419E326855A
:100A1000CD2917170000130727296313E402C040EC
:100A20000357C400218B19C3184829EFA2852685D6
:100A3000B52229C97D55B2402244924441018280A9
:100A400017170000130747286314E4008044C9BF48
:100A50001717000013074723E314E4FCC044C9B789
:100A6000824718C485073EC063580700144C634D85
:100A7000D7022947638AE50218409306170014C07D
:100A80002300B7008247184483C507007D17E9F9A2
:100A900018C4635207022286A94526852528FD57DA
:100AA000E30AF5F8294541BF2286268525207D5792
:100AB000E31AE5FC41B71C401387170018C029470B
:100AC0002380E700C5B797F7FF1F9387A75DAA8527
:100AD00088430DB7311122C626C406C8AA87AE8442
:100AE000328411C5184D01E72AC021298247171702
:100AF00000001307671B631BE406C043184C18C4AF
:100B00000357C400218B59C3184849C318480840EB
:100B100093F6F40F93F4F40F198D5848634AE500E7
:100B20003E85A28536C23EC06D2C824792462DE599
:100B3000184405057D1718C418401306170010C087
:100B40002300D70058486309A7000357C400058B4A
:100B500001CB29476396E400A2853E8559240DED1B
:100B6000C24032442685A2445101828017170000FA
:100B7000130787156314E400804749B7171700006F
:100B800013078710E31CE4F6C0478DBF3E85A2859E
:100B90003EC0292082473DD9FD54D9B7411197F76E
:100BA000FF1F9387275026C2844322C406C6AA8605
:100BB0002E8499C49C4C89E72AC0268599268246B2
:100BC000971700009387470E631AF402C04003177B
:100BD000C40093170701C18313F6870035EE13F69F
:100BE00007010DEEA5479CC2136707042316E40016
:100BF0007D55B24022449244410182809717000003
:100C00009387870C6314F4008044D1B797170000D2
:100C100093878707E31DF4FAC04455BF918B9DC7A6
:100C20004C5899C9930744046386F500368536C04D
:100C30002D2B8246232A04028357C400232204005A
:100C400093F7B7FD2316F4001C481CC08357C4005B
:100C500093E787002316F4001C4881EF8357C400F4
:100C60001307002093F707286385E700A2853685E0
:100C7000B9298357C40013F7170005C75C4823241C
:100C80000400B307F0401CCC1C480145BDF383179A
:100C9000C40013F7070831DF93E707042316F400B5
:100CA00081BF898B014791E3584818C4F1BF83D6AF
:100CB000C500311122C606C826C413F78600AA87CC
:100CC0002E8469EFD841634BE000B8416348E000EF
:100CD0000145C2403244A2445101828058546DDB28
:100CE00084431396360123A00700635E060670480E
:100CF0000357C400118B19C75840198E585819C38F
:100D00003840198E58540C5081463E853EC002979B
:100D10007D578356C4008247631DE50090437547A5
:100D20006368C7063707402005073357C700058BA0
:100D300025C318482322040018C0139736016358AE
:100D400007007D576314E500984311E368C84C58C9
:100D500084C3BDDD130744046384E5003E8531216F
:100D6000232A0402B5B70C5001463E8585463EC095
:100D700002977D572A868247E31CE5F698432DDBD0
:100D8000F5466305D700D9466313D70484C389B7F2
:100D900093E606042316D4007D5525BF98490DDB44
:100DA00084418D8A98C1998C014691E2D04910C442
:100DB000E35090F2032384020C503A863E85A686C7
:100DC0003AC23EC00293824712476349A00083574C
:100DD000C40093E707042316F4007DBF2A97898C8B
:100DE000C1BF9C49B9CF411122C406C62A8411C58E
:100DF0001C4D81E72EC03122824597170000938752
:100E0000A7EA639BF5004C408397C50095C72285F0
:100E10002244B240410161BD971700009387C7EAA1
:100E20006394F5000C44CDB7971700009387C7E58E
:100E3000E39CF5FC4C44C9BFB2402244014541014A
:100E4000828001458280511122C206C42A84231661
:100E5000B5002317C5002320050023220500232405
:100E600005002322050623280500232A0500232C3C
:100E70000500214681451305C505EFF08FAB971797
:100E800000009387C7BB5CD097170000938727BEED
:100E90001CD497170000938767C25CD49717000093
:100EA000938727C500D01CD8A2401244310182800C
:100EB00097050000938525F389AA41111386F5FF54
:100EC00022C41314160032940A0432940E042EC065
:100ED0009305440726C206C68926AA8409CD8247FF
:100EE000232005003105232CF5FE88C41306840653
:100EF0008145EFF00FA4B24022442685924441017F
:100F000082801C4DBDE3511106C422C29707000028
:100F1000938747FA1CD597F7FF1F9387E7189C43E1
:100F20002324050423260504232805046314F5005F
:100F300085471CCD2A841D2848C02285052808C461
:100F400022852D2048C4484001469145ED3D084486
:100F50000546A545CD3D48440946C945ED3585477B
:100F60001CCCA2401244310182808280411197F74B
:100F7000FF1F9387671322C4804326C206C61C4CFA
:100F8000AA8499E32285B53F930784048047D84318
:100F90007D1763560700984331CF9C43C5BF831626
:100FA000C400B1E6C177850723220406232004008C
:100FB00023220400232404005CC423280400232AE1
:100FC0000400232C0400214681451305C405EFF0DD
:100FD0004F96232A0402232C0402232404042326EC
:100FE00004042285B24022449244410182801304C9
:100FF000840679BF914526853EC0C135824788C3A6
:1010000049FDB1479CC00144E9BF111122CA06CC79
:1010100026C8AA862E8613048504814719E4E24077
:101020005244C2443E8571018280044458407D1779
:10103000635407000040DDB703D5C400854563F362
:10104000A5020395E400FD55630EB5003685A6851F
:101050003EC63AC436C232C00296B24722479246D2
:101060000246C98F93848406D9B7AE878395E5007D
:101070005971A6D286D6A2D4B28463DC050083D788
:10108000C70023A0060093F707088DEB93070040E5
:1010900005A81304F1006198228636C23EC0EF0015
:1010A000D02A82479246E34C05FC5840BD67F98F31
:1010B0007977BA9793B717009CC2C9BF930700040A
:1010C000B65026549CC0014596546561828003D772
:1010D000C500211122C806CA26C6098B2E8401CF5D
:1010E000930774041CC01CC885475CC8D2404244A6
:1010F000B2446101828034005000AA84BD37924519
:101100002AC02685192A01ED8317C40013F707208A
:1011100071FFF19B93E727002316F400D1B717075F
:101120000000130727D998D40357C40008C008C883
:10113000136707082316E400124758C8224711CF47
:101140008315E4002685EF00F02201C98357C4000F
:10115000F19B93E717002316F4008357C40002475E
:10116000B364F7002316940051B7DDC583A7C5FF0C
:10117000511122C206C426C01384C5FF63D30700E1
:101180003E94AA84EF00F02597F7FF1F938707F29C
:101190009C4391EF2322040097F7FF1F23A887F0B9
:1011A0001244A2402685824431016F00B023637E41
:1011B000F40014403307D4006396E7009843DC43FF
:1011C000369718C05CC0C9BFBA87D84319C3E37D3E
:1011D000E4FE94433386D700631F86001040B29626
:1011E00094C33386D700E31DC7FA10435843B29621
:1011F00094C3D8C375B76375C400B1479CC04DB7DD
:101200001040B306C4006316D70014435843B29687
:1012100014C058C0C0C369B78280411126C29384EC
:101220003500F19806C622C4A104B14763F9F4045D
:10123000B14463E8B4042AC0EF00B01A1387818078
:1012400014438247368431E41387C180184309EB85
:101250003E8581453EC0EF00A07B23A6A18082474A
:101260003E85A6853EC0EF00A07A7D578247631673
:10127000E506314798C33E85EF00D01629A0E3DA92
:1012800004FAB1471CC10145B240224492444101D5
:1012900082801840058F634F07022D466376E60073
:1012A00018C03A9404C031A058406393860223A426
:1012B000E1803E85EF0010131305B40013074400CE
:1012C0006199B307E540E9D33E94098F18C06DBF1B
:1012D000D8C2C5B7A2864040BDB713043500719887
:1012E000E30285FCB305A4403E853EC015277D572B
:1012F0008247E319E5FAB5BF1C46FD171CC663DA41
:101300000700184E63C5E700A9476394F5006FF026
:101310006FFC1C422E851387170018C22380B7006C
:101320008280311122C626C406C8AA872E8732843D
:10133000B304D60063149400014531A8834504002A
:101340003A863E853AC23EC0453FFD560504824777
:101350001247E311D5FEC2403244A24451018280BB
:10136000130181F722C1A6DE9307F10106C32AC04B
:1013700032C22E8493F487FF11C5184D01E736C69B
:101380004936B24617170000130707926317E40E99
:101390008247C0430357C400218B630207101848DB
:1013A000630F070E13070002A38CE400130700036A
:1013B00023AA0400238DE40036CA12471306500204
:1013C0008346070099C2639BC60E92473303F740DA
:1013D0006301030202459A863E86A2853AC81AC670
:1013E0008937FD56630DD520D448324342479A963B
:1013F000D4C88346070063840620130317007D5773
:1014000023A0040023A60400D8C023A40400A381C1
:10141000040423AC0404834503001546171500009B
:101420001305858C1AC2EF00207A124394401307EB
:10143000130059E513F6060109C613060002A3813D
:10144000C40413F6860009C61306B002A381C404BF
:10145000834503001306A0026381C508D4441A879C
:10146000814525450346070013031700130606FDB3
:10147000637AC50ABDC9D4C48DA817170000130725
:10148000A7846315E4008247804729B71707000047
:101490001307877FE310E4F08247C047E5BD0245AC
:1014A000A28536C6EFF08FEFB246E30D05EE7D550F
:1014B0009A400A44F654130181088280050709B74F
:1014C00017160000130646823306C540054533153E
:1014D000C500C98E94C03A833DBF5246930546006D
:1014E00010422ECA63490602D0C403460700930681
:1014F000E0026313D606034617009306A002631E9C
:10150000D602D246090713864600944232CA63C403
:101510000602D4C091A03306C04093E62600D0C492
:1015200094C0E1B71397260036970607B306C700A5
:1015300085451A8705BFFD56E9BF050723A20400AC
:10154000814581462545034607001303170013060E
:1015500006FD637AC506D5FD834507000D461705D0
:1015600000001305E5783AC28525124711CD97068C
:1015700000009386E677158D93060004B396A600C7
:1015800088400507558D88C08345070093071700DD
:101590001946170500001305E5753EC2238CB400FB
:1015A000252535C517F7FFFF1307C7A505EB9440A1
:1015B000524793F606108DC211073ACAD848A2477F
:1015C0003E97D8C8DDBB1397260036970607B306AB
:1015D000C70085451A8785BF2107C5B7024558084A
:1015E00097060000938626D42286A68597000000E1
:1015F000E70000002AC4A2477D57E391E7FC0357A8
:10160000C40013770704E31407EAC84855B5024538
:10161000580897060000938606D12286A685052ADB
:10162000D1BF011126CA3283B6849045944922CC99
:1016300006CE2A84AE8763D3C600B2862320D300A9
:1016400003C6370401C685062320D300944393F6CE
:10165000060291C68326030089062320D30083A2B5
:1016600007009383970193F262006383020690431D
:1016700083C6370413760602B336D00041EA1386D8
:101680003704A68522851AC43EC23AC00297FD5689
:101690006308D5069247224311459443032603006D
:1016A000CC47998A014302476397A6003383C5401C
:1016B0006353030001439447904B6354D600918ECB
:1016C00036938142E9076312530601451DA885023E
:1016D000D44703260300918EE3DBD2F885461E86AD
:1016E000A68522851AC83EC616C41EC23AC00297F5
:1016F000FD5602479243A242B2474243E319D5FC4A
:101700007D55F2406244D24405618280B385D700A2
:1017100013050003A381A50483C55704138616008F
:101720003E968906A301B60499BF85463E86A685E6
:10173000228516C61AC43EC23AC00297FD56E3017E
:10174000D5FCB2422243924785020247ADBF130146
:1017500041FD22D206D426D032C203C6850136C44A
:101760002AC0930690062E8493823504630DD60218
:1017700063E2C606930680056301D61A63EDC600D0
:10178000630A062293063004630CD60A93042404E9
:101790002301C4047DA8930630066303D60A93068A
:1017A0004006E315D6FE1440084313F606089305D9
:1017B000450055C214410CC363D806001307D0027C
:1017C000B306D040A301E404170600001306065335
:1017D00029475DA893060007630DD61663E5C60288
:1017E0009306E0066304D61A9306F006E310D6FAD1
:1017F0000C40144313F305081385460063050306E4
:1018000008C39442BDA093065007E303D6FE930697
:1018100080076304D61493063007E319D6F6144301
:101820001386460010C38442D04181452685692E27
:1018300019C1058D48C0584018C8A301040475A8F3
:101840001443930424041386460010C398422301D2
:10185000E4040547D5B713F6060414410CC329DE8A
:10186000C206C18691BF93F5050408C3D9D983D6B2
:1018700006001307F0066303E610170600001306C0
:10188000E6472947A30104044C400CC463C5050086
:1018900008406D9908C099E296848DCD9684BA85EA
:1018A000368516CC32CA3AC836C6EFE0FF835246B8
:1018B0004247B246329583450500FD1436852380A4
:1018C000B400BA85EFE08FFFB24642475246E2428B
:1018D00063FCE60AA146631ED7001840058B11CBB6
:1018E000544018486347D70013070003A38FE4FE52
:1018F000FD14B382924023285400224792460245A9
:101900007008A285393B7D57631AE50A7D55A250C0
:10191000125482541301C1028280A382C5041706A7
:1019200000001306A63D0C40084313F305081441BC
:101930001105630D030208C313F7150001C793E5F2
:1019400005020CC041479DFE0C4093F5F5FD0CC00F
:1019500015BF944193E6060294C193068007A30243
:10196000D404170600001306A63A75BF13F3050446
:1019700008C3E30303FCC206C1827DBF1706000053
:101980001306C6372147FDBDAA8611BF90411443F7
:10199000CC4913730608138546006306030008C389
:1019A00098420CC301A808C313760604984275DA5E
:1019B0002310B70023280400968481B71448924569
:1019C0000245A247268682977D57E301E5F4184039
:1019D000098B1DEB72474844E35BE5F23A8505BF8E
:1019E00092450245A24785461A863AC81AC682978A
:1019F000FD56E30DD5F04247324305075444724685
:101A0000918EE34FD7FCF9B7014713039401FDB75B
:101A1000511122C22A842E8523A0018206C4EFE040
:101A2000DFF6FD576317F500938701829C4391C34E
:101A30001CC0A240124431018280511122C22E8466
:101A40008395E50006C44522634905007C48AA97B2
:101A50007CC8A2401244310182808357C4007D7744
:101A60007D17F98F2316F400EDB783D7C500311128
:101A700022C626C406C893F70710AA842E84328390
:101A8000B68291CB8395E50036C232C089460146C5
:101A90003122924202438357C4007D777D17F98F2C
:101AA0002316F4008315E4003244C2402685A24484
:101AB00096861A8651013DA8511122C22E84839523
:101AC000E50006C4E128FD570357C400631BF50079
:101AD000FD77FD17F98F2316F400A240124431015F
:101AE00082808567D98F2316F40068C8FDB7839577
:101AF000E50005A8511122C22A842E85B2853686BA
:101B000023A0018206C4EFE09FE3FD576317F500B1
:101B1000938701829C4391C31CC0A24012443101AF
:101B20008280511122C22A842E8523A0018206C4FC
:101B3000CD20FD576317F500938701829C4391C325
:101B40001CC0A240124431018280511122C22A8459
:101B50002E85B28523A0018206C4D120FD576317CC
:101B6000F500938701829C4391C31CC0A24012449C
:101B700031018280511122C22A842E8523A0018244
:101B800006C46520FD576317F500938701829C43C7
:101B900091C31CC0A240124431018280511122C263
:101BA0002A842E85B285368623A0018206C4612050
:101BB000FD576317F500938701829C4391C31CC0B6
:101BC000A24012443101828093F5F50F2A966314E6
:101BD000C5000145828083470500E38DB7FE0505FA
:101BE000FDB782808280511122C22A842E85B2855F
:101BF000368623A0018206C4A920FD576317F5008D
:101C0000938701829C4391C31CC0A24012443101BE
:101C100082809307800523A0F1827D5582809307FF
:101C2000800523A0F1827D5582809307800523A043
:101C3000F182014582809307800523A0F1827D55C2
:101C400082809307800523A0F1827D558280000069
:101C50000A0D204F72696F6E2050726F6A6563744F
:101C6000200D000053797374656D436C6B3A2564E5
:101C70000D0A00004368697049443A253038780DF0
:101C80000A0000000000000000000000000000004A
:101C90000000000000000000000000000000000044
:101CA0000000000000000000000000000000000034
:101CB0000000000000000000000000000000000024
:101CC0000000000000000000000000000000000014
:101CD0000000000000000000000000000000000004
:101CE00000000000232D302B20000000686C4C0009
:101CF0006566674546470000303132333435363744
:101D00003839414243444546000000003031323307
:101D10003435363738396162636465660000000027
:101D2000010203040506070801020304050607086B
:101D3000006CDC020204060804080C1008101820CD
:101D4000102030402040608001020304050607088F
:101D50000102030405060708C4000020000000007B
:101D6000A41C0000C41C0000841C00000000000033
:101D70000000000000000000000000000000000063
:101D80000000000000000000000000000000000053
:101D90000000000000000000000000000000000043
:101DA0000000000000000000000000000000000033
:101DB0000000000000000000000000000000000023
:081DC0003C0000203C00002063
:00000001FF
